:100000001AC032C031C079C12FC02DC12DC02CC043
:100010002BC02AC029C028C027C026C025C0000088
:100020003700003802020202020201020408102016
:1000300001020000040011241FBECFEDCDBF10E06F
:10004000A0E6B0E0E4E2F7E002C005900D92A23A2B
:10005000B107D9F720E0A2EAB0E001C01D92AA3BA7
:10006000B207E1F7B0D15CC3CBCF3FB7F894809132
:10007000B6009091B700A091B800B091B90022B736
:1000800008B601FE05C02F3F19F00196A11DB11D54
:100090003FBFBA2FA92F982F8827BC01CD01620F2F
:1000A000711D811D911D43E0660F771F881F991FE9
:1000B0004A95D1F70895CF92DF92EF92FF92CF93B6
:1000C000DF936B017C01D1DFEB01C114D104E104AA
:1000D000F10441F412C081E0C81AD108E108F10826
:1000E000C851DC4FC2DF6C1B7D0B683E734068F368
:1000F000C114D104E104F10471F7DF91CF91FF90B5
:10010000EF90DF90CF900895909160009F3F29F18C
:10011000981711F08F3F09F589B78B7989BF89B797
:100120008B7989BF10BE1FBC1EBC1BBC8FEF8DBD61
:1001300084E688BF80E48CBD84EC80BFE091A7009A
:10014000F091A800309731F08091A60090818095C1
:10015000892380838FEF80936000089587FF09C013
:100160008F77D1F08130D1F08230D1F08330D1F06F
:100170008FEF282F30E0F901E05DFF4F949186303A
:1001800098F4F901E65DFF4F8491F901EC5DFF4FB2
:10019000E491EF3F59F4089585E0EBCF82E0E9CF99
:1001A00084E0E7CF83E0E5CF8FEFE0E0992329F00B
:1001B000913099F49AB59F779ABDF0E0EF5DFF4FCB
:1001C000A491B0E09FB7611119C0F8942C91E82F69
:1001D000E095E223EC939FBF0895923019F49AB50D
:1001E0009F7DEACF933021F490B79F7D90BFE5CFFC
:1001F000943019F79CB59F7D9CBDDFCFF894EC91AE
:10020000E82BE8CFCF93DF9390E0FC01E65DFF4F52
:1002100024918C5D9F4FFC0184918823D1F090E064
:10022000FC01E25EFF4FE491CE2FD0E08F5D9F4F47
:10023000FC018491623081F4A82FB0E09FB7F8945C
:100240003881822F809583238883EC91E22BEC9375
:100250009FBFDF91CF9108958FB7F894E881E22B8B
:10026000E8838FBFF6CF1F920F920FB60F92112423
:100270002F933F938F939F93AF93BF938091B2003F
:100280009091B300A091B400B091B5003091B1004D
:1002900026E0230F2D3768F129E8230F0396A11DCF
:1002A000B11D2093B1008093B2009093B300A0934E
:1002B000B400B093B5008091B6009091B700A091C2
:1002C000B800B091B9000196A11DB11D8093B60090
:1002D0009093B700A093B800B093B900BF91AF91CD
:1002E0009F918F913F912F910F900FBE0F901F9074
:1002F00018950296A11DB11DD4CF1F920F920FB673
:100300000F9211242F933F934F935F936F937F939B
:100310008F939F93AF93BF93EF93FF938091A2002E
:100320009091A300A091A400B091A500892B8A2BE5
:100330008B2B61F18091A2009091A300A091A40069
:10034000B091A500181619061A061B0694F580919F
:10035000A2009091A300A091A400B091A5000197E4
:10036000A109B1098093A2009093A300A093A400D7
:10037000B093A5008091A2009091A300A091A40049
:10038000B091A500892B8A2B8B2B99F48FEFBCDEC3
:10039000FF91EF91BF91AF919F918F917F916F915D
:1003A0005F914F913F912F910F900FBE0F901F9033
:1003B00018959091A600E091A700F091A800808187
:1003C00089278083E5CFCF93DF93CDB7DD27C35057
:1003D000CDBF1982898183BB83E08ABD82E083BF60
:1003E000789489B7826089BF80E48CBD84EC80BF3B
:1003F00083E886B98091BA009091BB0021E030E09B
:10040000009711F030E020E03093BB002093BA0059
:10041000892B49F085B7877E806185BF379885B77E
:10042000806285BF889561E080E0ECDE61E081E07C
:10043000E9DE61E082E0E6DE61E083E0E3DE62E0E7
:1004400084E0E0DE00E861E083E088DE2FB7F89426
:100450008091B2009091B300A091B400B091B5002A
:100460002FBF9093B0008093AF0028E8222E20E0A9
:10047000322E85E690E09B838A8361E08091AD0017
:100480006DDED101ED911D01F0E0EE0FFF1FE2588E
:10049000FF4FC080D180F12CE12C80916000813031
:1004A00071F44091A9005091AA006091AB00709145
:1004B000AC00C416D506E606F70609F467C0C0927C
:1004C000A900D092AA00E092AB00F092AC008F3F5E
:1004D00009F510BE8CB581788CBD1FBC1EBC1BBC41
:1004E0001DBC89B78B7989BF88B7846688BF00BF78
:1004F0001092A8001092A7001092A60080B78F7DDE
:1005000080BF80B7806180BF61E081E07BDE81E0F9
:1005100080936000109160001130C1F580B7807F3A
:1005200080BF1FBCC114D104E104F10409F495C0DB
:1005300060E271EA87E090E0A7019601CFD02F3FFB
:1005400031054105510549F040F01F3031F01F5F82
:100550005695479537952795F2CF8FEF820F8DBD32
:1005600021503109410951092EBD8FEF9FEFDC0168
:100570008093A2009093A300A093A400B093A50041
:1005800089B7806489BF80B7182B10BFAA81BB814F
:10059000ED91BB83AA83F0E0EF59FF4F608170E0DB
:1005A00090E080E024E130E040E050E07ED02B019C
:1005B0003C012AE030E040E050E090D049015A018F
:1005C000C12CD12C7601C414D504E604F70408F03C
:1005D00050C08FB7F8944091B2005091B300609131
:1005E000B4007091B5008FBF8091AF009091B000C2
:1005F0008C509E4F092E000CAA0BBB0B841795073D
:10060000A607B70710F560E08091AD00A7DD8091E7
:10061000AD009091AE00892B51F180E0282F30E0A1
:100620003093AE002093AD0061E098DD2FB7F894D1
:100630008091B2009091B300A091B400B091B50048
:100640002FBF9093B0008093AF00C501B40133DD9C
:10065000C80CD91CEA1CFB1CB6CF89B7806489BFC3
:1006600089B78B7989BF60E081E078DD8FCF82E048
:10067000D5CF81E049DD64E670E080E090E01BDDED
:1006800081EA90E08215930509F0F7CE60E080E002
:1006900065DD60E082E062DD60E083E05FDD68E808
:1006A00073E180E090E007DDCECEEE27FF27AA279A
:1006B000BB2708C0A20FB31FE41FF51F220F331F73
:1006C000441F551F969587957795679598F37040C9
:1006D000A9F7009799F7BD01CF010895A1E21A2E5D
:1006E000AA1BBB1BFD010DC0AA1FBB1FEE1FFF1FD6
:1006F000A217B307E407F50720F0A21BB30BE40B26
:10070000F50B661F771F881F991F1A9469F760956C
:100710007095809590959B01AC01BD01CF01089526
:04072000F894FFCF7B
:10072400FF050A142801010201010201010101036C
:1007340001010101010101000001010101030601A0
:1007440026014A015D01880102020202020202043A
:10075400000102030303030302020202040403016F
:02076400000093
:00000001FF
